{
  "address": "0x5EbcF55d647e31Ded92EaC4163bad9002D3563a7",
  "abi": [
    {
      "anonymous": false,
      "inputs": [
        {
          "indexed": false,
          "internalType": "address",
          "name": "previousAdmin",
          "type": "address"
        },
        {
          "indexed": false,
          "internalType": "address",
          "name": "newAdmin",
          "type": "address"
        }
      ],
      "name": "AdminChanged",
      "type": "event"
    },
    {
      "anonymous": false,
      "inputs": [
        {
          "indexed": true,
          "internalType": "address",
          "name": "beacon",
          "type": "address"
        }
      ],
      "name": "BeaconUpgraded",
      "type": "event"
    },
    {
      "anonymous": false,
      "inputs": [
        {
          "indexed": true,
          "internalType": "address",
          "name": "previousOwner",
          "type": "address"
        },
        {
          "indexed": true,
          "internalType": "address",
          "name": "newOwner",
          "type": "address"
        }
      ],
      "name": "OwnershipTransferred",
      "type": "event"
    },
    {
      "anonymous": false,
      "inputs": [
        {
          "indexed": true,
          "internalType": "address",
          "name": "implementation",
          "type": "address"
        }
      ],
      "name": "Upgraded",
      "type": "event"
    },
    {
      "inputs": [
        {
          "internalType": "uint8",
          "name": "v",
          "type": "uint8"
        },
        {
          "internalType": "bytes32",
          "name": "r",
          "type": "bytes32"
        },
        {
          "internalType": "bytes32",
          "name": "s",
          "type": "bytes32"
        }
      ],
      "name": "claim",
      "outputs": [],
      "stateMutability": "nonpayable",
      "type": "function"
    },
    {
      "inputs": [
        {
          "internalType": "address[]",
          "name": "publicKeys",
          "type": "address[]"
        },
        {
          "internalType": "uint256[]",
          "name": "amounts",
          "type": "uint256[]"
        },
        {
          "internalType": "contract IERC20Upgradeable",
          "name": "token",
          "type": "address"
        }
      ],
      "name": "createDrops",
      "outputs": [],
      "stateMutability": "nonpayable",
      "type": "function"
    },
    {
      "inputs": [],
      "name": "initialize",
      "outputs": [],
      "stateMutability": "nonpayable",
      "type": "function"
    },
    {
      "inputs": [],
      "name": "owner",
      "outputs": [
        {
          "internalType": "address",
          "name": "",
          "type": "address"
        }
      ],
      "stateMutability": "view",
      "type": "function"
    },
    {
      "inputs": [],
      "name": "renounceOwnership",
      "outputs": [],
      "stateMutability": "nonpayable",
      "type": "function"
    },
    {
      "inputs": [
        {
          "internalType": "address",
          "name": "newOwner",
          "type": "address"
        }
      ],
      "name": "transferOwnership",
      "outputs": [],
      "stateMutability": "nonpayable",
      "type": "function"
    },
    {
      "inputs": [
        {
          "internalType": "address",
          "name": "newImplementation",
          "type": "address"
        }
      ],
      "name": "upgradeTo",
      "outputs": [],
      "stateMutability": "nonpayable",
      "type": "function"
    },
    {
      "inputs": [
        {
          "internalType": "address",
          "name": "newImplementation",
          "type": "address"
        },
        {
          "internalType": "bytes",
          "name": "data",
          "type": "bytes"
        }
      ],
      "name": "upgradeToAndCall",
      "outputs": [],
      "stateMutability": "payable",
      "type": "function"
    }
  ],
  "transactionHash": "0x8f514726b41b346aa3e21ddb02c7d1f2023567058ee2640668c9b93ce10fa4c7",
  "args": [],
  "solcInputHash": "c5ecc09aafe67134b34de964bb53d54d",
  "bytecode": "0x60a06040523060601b60805234801561001757600080fd5b5060805160601c61135f61004b60003960008181610165015281816101ae015281816102370152610277015261135f6000f3fe60806040526004361061006b5760003560e01c80633659cfe6146100705780634f1ef286146100925780635f27b8ae146100a5578063715018a6146100c55780638129fc1c146100da5780638da5cb5b146100ef578063aac6c6cd1461011a578063f2fde38b1461013a575b600080fd5b34801561007c57600080fd5b5061009061008b366004610e62565b61015a565b005b6100906100a0366004610e7f565b61022c565b3480156100b157600080fd5b506100906100c0366004610f26565b6102e6565b3480156100d157600080fd5b506100906104bd565b3480156100e657600080fd5b506100906104f8565b3480156100fb57600080fd5b50610104610573565b6040516101119190611077565b60405180910390f35b34801561012657600080fd5b50610090610135366004611020565b610582565b34801561014657600080fd5b50610090610155366004610e62565b6107c9565b306001600160a01b037f00000000000000000000000000000000000000000000000000000000000000001614156101ac5760405162461bcd60e51b81526004016101a3906110be565b60405180910390fd5b7f00000000000000000000000000000000000000000000000000000000000000006001600160a01b03166101de610866565b6001600160a01b0316146102045760405162461bcd60e51b81526004016101a3906110f8565b61020d81610882565b60408051600080825260208201909252610229918391906108b1565b50565b306001600160a01b037f00000000000000000000000000000000000000000000000000000000000000001614156102755760405162461bcd60e51b81526004016101a3906110be565b7f00000000000000000000000000000000000000000000000000000000000000006001600160a01b03166102a7610866565b6001600160a01b0316146102cd5760405162461bcd60e51b81526004016101a3906110f8565b6102d682610882565b6102e2828260016108b1565b5050565b8251825181146102f557600080fd5b6000805b8281101561041e5784818151811061031357610313611281565b6020026020010151826103269190611208565b9150600086828151811061033c5761033c611281565b60200260200101519050604051806080016040528060011515815260200160006001600160a01b03168152602001866001600160a01b0316815260200187848151811061038b5761038b611281565b6020908102919091018101519091526001600160a01b03928316600090815260c9825260409081902083518154938501516001600160a81b0319909416901515610100600160a81b03191617610100938616939093029290921782558201516001820180546001600160a01b0319169190941617909255606001516002909101558061041681611250565b9150506102f9565b506001600160a01b0383166323b872dd336040516001600160e01b031960e084901b1681526001600160a01b03909116600482015230602482015260448101849052606401602060405180830381600087803b15801561047d57600080fd5b505af1158015610491573d6000803e3d6000fd5b505050506040513d601f19601f820116820180604052508101906104b59190610ffe565b505050505050565b336104c6610573565b6001600160a01b0316146104ec5760405162461bcd60e51b81526004016101a390611180565b6104f660006109f8565b565b600054610100900460ff1680610511575060005460ff16155b61052d5760405162461bcd60e51b81526004016101a390611132565b600054610100900460ff1615801561054f576000805461ffff19166101011790555b610557610a4a565b61055f610ab1565b8015610229576000805461ff001916905550565b6097546001600160a01b031690565b6040517b0ca2ba3432b932bab69029b4b3b732b21026b2b9b9b0b3b29d05199960211b60208201526001600160601b03193360601b16603c82015260009060500160408051601f198184030181528282528051602080830191909120600080865291850180855281905260ff8916938501939093526060840187905260808401869052909350909160019060a0016020604051602081039080840390855afa158015610632573d6000803e3d6000fd5b505060408051601f198101516001600160a01b03808216600090815260c9602090815290859020608085018652805460ff811615158087526101009091048416928601929092526001810154909216948401949094526002015460608301529350915061069e57600080fd5b60208101516001600160a01b0316156106b657600080fd5b336001600160a01b039081166020838101918252848316600090815260c99091526040908190208451815493516001600160a81b0319909416901515610100600160a81b03191617610100938516939093029290921782558301516001820180546001600160a01b03191691909316908117909255606083015160029091015563a9059cbb3360608401516040516001600160e01b031960e085901b1681526001600160a01b0390921660048301526024820152604401602060405180830381600087803b15801561078757600080fd5b505af115801561079b573d6000803e3d6000fd5b505050506040513d601f19601f820116820180604052508101906107bf9190610ffe565b5050505050505050565b336107d2610573565b6001600160a01b0316146107f85760405162461bcd60e51b81526004016101a390611180565b6001600160a01b03811661085d5760405162461bcd60e51b815260206004820152602660248201527f4f776e61626c653a206e6577206f776e657220697320746865207a65726f206160448201526564647265737360d01b60648201526084016101a3565b610229816109f8565b6000805160206112e3833981519152546001600160a01b031690565b3361088b610573565b6001600160a01b0316146102295760405162461bcd60e51b81526004016101a390611180565b60006108bb610866565b90506108c684610b18565b6000835111806108d35750815b156108e4576108e28484610bab565b505b7f4910fdfa16fed3260ed0e7147f7cc6da11a60208b5b9406d12a635614ffd9143805460ff166109f157805460ff1916600117815560405161095f908690610930908590602401611077565b60408051601f198184030181529190526020810180516001600160e01b0316631b2ce7f360e11b179052610bab565b50805460ff19168155610970610866565b6001600160a01b0316826001600160a01b0316146109e85760405162461bcd60e51b815260206004820152602f60248201527f45524331393637557067726164653a207570677261646520627265616b73206660448201526e75727468657220757067726164657360881b60648201526084016101a3565b6109f185610c96565b5050505050565b609780546001600160a01b038381166001600160a01b0319831681179093556040519116919082907f8be0079c531659141344cd1fd0a4f28419497f9722a3daafe3b4186f6b6457e090600090a35050565b600054610100900460ff1680610a63575060005460ff16155b610a7f5760405162461bcd60e51b81526004016101a390611132565b600054610100900460ff16158015610aa1576000805461ffff19166101011790555b610aa9610cd6565b61055f610cd6565b600054610100900460ff1680610aca575060005460ff16155b610ae65760405162461bcd60e51b81526004016101a390611132565b600054610100900460ff16158015610b08576000805461ffff19166101011790555b610b10610cd6565b61055f610d40565b803b610b7c5760405162461bcd60e51b815260206004820152602d60248201527f455243313936373a206e657720696d706c656d656e746174696f6e206973206e60448201526c1bdd08184818dbdb9d1c9858dd609a1b60648201526084016101a3565b6000805160206112e383398151915280546001600160a01b0319166001600160a01b0392909216919091179055565b6060823b610c0a5760405162461bcd60e51b815260206004820152602660248201527f416464726573733a2064656c65676174652063616c6c20746f206e6f6e2d636f6044820152651b9d1c9858dd60d21b60648201526084016101a3565b600080846001600160a01b031684604051610c25919061105b565b600060405180830381855af49150503d8060008114610c60576040519150601f19603f3d011682016040523d82523d6000602084013e610c65565b606091505b5091509150610c8d828260405180606001604052806027815260200161130360279139610da0565b95945050505050565b610c9f81610b18565b6040516001600160a01b038216907fbc7cd75a20ee27fd9adebab32041f755214dbc6bffa90cc0225b39da2e5c2d3b90600090a250565b600054610100900460ff1680610cef575060005460ff16155b610d0b5760405162461bcd60e51b81526004016101a390611132565b600054610100900460ff1615801561055f576000805461ffff19166101011790558015610229576000805461ff001916905550565b600054610100900460ff1680610d59575060005460ff16155b610d755760405162461bcd60e51b81526004016101a390611132565b600054610100900460ff16158015610d97576000805461ffff19166101011790555b61055f336109f8565b60608315610daf575081610dd9565b825115610dbf5782518084602001fd5b8160405162461bcd60e51b81526004016101a3919061108b565b9392505050565b600082601f830112610df157600080fd5b81356020610e06610e01836111e5565b6111b5565b80838252828201915082860187848660051b8901011115610e2657600080fd5b60005b85811015610e4557813584529284019290840190600101610e29565b5090979650505050505050565b8035610e5d816112ad565b919050565b600060208284031215610e7457600080fd5b8135610dd9816112ad565b60008060408385031215610e9257600080fd5b8235610e9d816112ad565b91506020838101356001600160401b0380821115610eba57600080fd5b818601915086601f830112610ece57600080fd5b813581811115610ee057610ee0611297565b610ef2601f8201601f191685016111b5565b91508082528784828501011115610f0857600080fd5b80848401858401376000848284010152508093505050509250929050565b600080600060608486031215610f3b57600080fd5b83356001600160401b0380821115610f5257600080fd5b818601915086601f830112610f6657600080fd5b81356020610f76610e01836111e5565b8083825282820191508286018b848660051b8901011115610f9657600080fd5b600096505b84871015610fc2578035610fae816112ad565b835260019690960195918301918301610f9b565b5097505087013592505080821115610fd957600080fd5b50610fe686828701610de0565b925050610ff560408501610e52565b90509250925092565b60006020828403121561101057600080fd5b81518015158114610dd957600080fd5b60008060006060848603121561103557600080fd5b833560ff8116811461104657600080fd5b95602085013595506040909401359392505050565b6000825161106d818460208701611220565b9190910192915050565b6001600160a01b0391909116815260200190565b60208152600082518060208401526110aa816040850160208701611220565b601f01601f19169190910160400192915050565b6020808252602c908201526000805160206112c383398151915260408201526b19195b1959d85d1958d85b1b60a21b606082015260800190565b6020808252602c908201526000805160206112c383398151915260408201526b6163746976652070726f787960a01b606082015260800190565b6020808252602e908201527f496e697469616c697a61626c653a20636f6e747261637420697320616c72656160408201526d191e481a5b9a5d1a585b1a5e995960921b606082015260800190565b6020808252818101527f4f776e61626c653a2063616c6c6572206973206e6f7420746865206f776e6572604082015260600190565b604051601f8201601f191681016001600160401b03811182821017156111dd576111dd611297565b604052919050565b60006001600160401b038211156111fe576111fe611297565b5060051b60200190565b6000821982111561121b5761121b61126b565b500190565b60005b8381101561123b578181015183820152602001611223565b8381111561124a576000848401525b50505050565b60006000198214156112645761126461126b565b5060010190565b634e487b7160e01b600052601160045260246000fd5b634e487b7160e01b600052603260045260246000fd5b634e487b7160e01b600052604160045260246000fd5b6001600160a01b038116811461022957600080fdfe46756e6374696f6e206d7573742062652063616c6c6564207468726f75676820360894a13ba1a3210667c828492db98dca3e2076cc3735a920a3ca505d382bbc416464726573733a206c6f772d6c6576656c2064656c65676174652063616c6c206661696c6564a26469706673582212203329039538941b9d2d401f16b044b2cb3081ad9c33aea5cf4de733efd0e1949264736f6c63430008070033",
  "devdoc": {
    "kind": "dev",
    "methods": {
      "owner()": {
        "details": "Returns the address of the current owner."
      },
      "renounceOwnership()": {
        "details": "Leaves the contract without owner. It will not be possible to call `onlyOwner` functions anymore. Can only be called by the current owner. NOTE: Renouncing ownership will leave the contract without an owner, thereby removing any functionality that is only available to the owner."
      },
      "transferOwnership(address)": {
        "details": "Transfers ownership of the contract to a new account (`newOwner`). Can only be called by the current owner."
      },
      "upgradeTo(address)": {
        "details": "Upgrade the implementation of the proxy to `newImplementation`. Calls {_authorizeUpgrade}. Emits an {Upgraded} event."
      },
      "upgradeToAndCall(address,bytes)": {
        "details": "Upgrade the implementation of the proxy to `newImplementation`, and subsequently execute the function call encoded in `data`. Calls {_authorizeUpgrade}. Emits an {Upgraded} event."
      }
    },
    "version": 1
  },
  "userdoc": {
    "kind": "user",
    "methods": {
      "claim(uint8,bytes32,bytes32)": {
        "notice": "To claim you should provide the signature of the message: msg = \"\\x19Ethereum Signed Message:\\n32\" + _msgSender() This must be signed using the secret key used to creat the airdrop to be claimed."
      },
      "initialize()": {
        "notice": "Equivalent to constructor in upgradable contracts"
      }
    },
    "version": 1
  },
  "storageLayout": {
    "storage": [
      {
        "astId": 539,
        "contract": "contracts/Airdrop.sol:Airdrop",
        "label": "_initialized",
        "offset": 0,
        "slot": "0",
        "type": "t_bool"
      },
      {
        "astId": 542,
        "contract": "contracts/Airdrop.sol:Airdrop",
        "label": "_initializing",
        "offset": 1,
        "slot": "0",
        "type": "t_bool"
      },
      {
        "astId": 522,
        "contract": "contracts/Airdrop.sol:Airdrop",
        "label": "__gap",
        "offset": 0,
        "slot": "1",
        "type": "t_array(t_uint256)50_storage"
      },
      {
        "astId": 689,
        "contract": "contracts/Airdrop.sol:Airdrop",
        "label": "__gap",
        "offset": 0,
        "slot": "51",
        "type": "t_array(t_uint256)50_storage"
      },
      {
        "astId": 1056,
        "contract": "contracts/Airdrop.sol:Airdrop",
        "label": "__gap",
        "offset": 0,
        "slot": "101",
        "type": "t_array(t_uint256)50_storage"
      },
      {
        "astId": 10,
        "contract": "contracts/Airdrop.sol:Airdrop",
        "label": "_owner",
        "offset": 0,
        "slot": "151",
        "type": "t_address"
      },
      {
        "astId": 124,
        "contract": "contracts/Airdrop.sol:Airdrop",
        "label": "__gap",
        "offset": 0,
        "slot": "152",
        "type": "t_array(t_uint256)49_storage"
      },
      {
        "astId": 1146,
        "contract": "contracts/Airdrop.sol:Airdrop",
        "label": "links",
        "offset": 0,
        "slot": "201",
        "type": "t_mapping(t_address,t_struct(DropDetails)1140_storage)"
      }
    ],
    "types": {
      "t_address": {
        "encoding": "inplace",
        "label": "address",
        "numberOfBytes": "20"
      },
      "t_array(t_uint256)49_storage": {
        "base": "t_uint256",
        "encoding": "inplace",
        "label": "uint256[49]",
        "numberOfBytes": "1568"
      },
      "t_array(t_uint256)50_storage": {
        "base": "t_uint256",
        "encoding": "inplace",
        "label": "uint256[50]",
        "numberOfBytes": "1600"
      },
      "t_bool": {
        "encoding": "inplace",
        "label": "bool",
        "numberOfBytes": "1"
      },
      "t_contract(IERC20Upgradeable)768": {
        "encoding": "inplace",
        "label": "contract IERC20Upgradeable",
        "numberOfBytes": "20"
      },
      "t_mapping(t_address,t_struct(DropDetails)1140_storage)": {
        "encoding": "mapping",
        "key": "t_address",
        "label": "mapping(address => struct Airdrop.DropDetails)",
        "numberOfBytes": "32",
        "value": "t_struct(DropDetails)1140_storage"
      },
      "t_struct(DropDetails)1140_storage": {
        "encoding": "inplace",
        "label": "struct Airdrop.DropDetails",
        "members": [
          {
            "astId": 1132,
            "contract": "contracts/Airdrop.sol:Airdrop",
            "label": "exist",
            "offset": 0,
            "slot": "0",
            "type": "t_bool"
          },
          {
            "astId": 1134,
            "contract": "contracts/Airdrop.sol:Airdrop",
            "label": "claimed",
            "offset": 1,
            "slot": "0",
            "type": "t_address"
          },
          {
            "astId": 1137,
            "contract": "contracts/Airdrop.sol:Airdrop",
            "label": "token",
            "offset": 0,
            "slot": "1",
            "type": "t_contract(IERC20Upgradeable)768"
          },
          {
            "astId": 1139,
            "contract": "contracts/Airdrop.sol:Airdrop",
            "label": "amount",
            "offset": 0,
            "slot": "2",
            "type": "t_uint256"
          }
        ],
        "numberOfBytes": "96"
      },
      "t_uint256": {
        "encoding": "inplace",
        "label": "uint256",
        "numberOfBytes": "32"
      }
    }
  }
}